:100000001DC0D4C3D3C3D2C37AC2D0C3CFC3CEC35F
:10001000CDC3CCC3CBC3CAC3C9C3C8C3C7C365C3DD
:1000200097C1C4C3C3C3C2C373C30060007E800052
:100030007E00990007B60099009F800011241FBE22
:10004000CFEDCDBFEAE2F0E040E017C0B591A59159
:1000500035912591059107FD0CC095918591EF0192
:10006000F92FE82F05900D92A217B307D9F7FE01DB
:1000700004C01D92A217B307E1F7EB33F40731F781
:0800800003D08DC3F894FFCFFB
:1000880081E088BB8FE087BB82E08ABB8BBB82E1C3
:1000980081BB8DE082BBE8E6F0E080818F7E8083C3
:1000A800E7E6F0E0808188608083808180618083DA
:1000B80080818B7F808380E4809363008BB780612D
:1000C8008BBF87E685B940D384E68093700085B7F7
:1000D8008F7A85BF85B7806285BF7894E6E6F0E0C1
:1000E800889582858111FCCFC6E6D0E007E610E04E
:1000F8000F2EFEE7EF2EF0E0FF2EF02D662463941E
:10010800912C862C712C88B3836088BBE6E7F0E0DD
:100118008FEF828383838683878332D38885898719
:100128000F2EFEE7CF2EF0E0DF2EF02D0F2EF0E998
:10013800AF2EF0E0BF2EF02D63E0C60149D283E078
:10014800C80ED11CCA14DB04B9F70F2EF4E6DF2E53
:10015800F02DF801808182FD03C0888186FF22C0CE
:1001680062E080E990E034D262E082E990E030D247
:10017800F7018589158A81FB222720F9988120FBC0
:1001880096F9988382958F70837090E0282D039755
:100198000CF0272D888120FB87F98883F80180815E
:1001A8008B7F8083888186FF19C062E084E990E0B4
:1001B8000FD263E086E990E00BD2F8018081806479
:1001C8008083F701818D90E09C838B838B819C8158
:1001D800228D922B9C838B83118E128E888186FFB1
:1001E80010C0888186FB222720F9988197FB8827F1
:1001F80080F9822319F0C098C19A05C0C198C09AA5
:1002080002C0C09AC19A85B78F7A85BF88958885BC
:10021800898588858987888580FD9BCFDA8688814E
:1002280080FFFDCF88818E7F8883888580FD91CF70
:100238008A858111F4CF1F82F80180818D7F8083A8
:10024800808181608083888180FFFDCF88818E7F57
:100258008883888580FF1DC0C09AC19AF801808173
:100268008E7F80838885869581708625E8E6F0E014
:10027800908180FB94F99083A3E6B0E082E0119628
:100288008C93119788E412968C93808184FD03C027
:1002980005C00000D8CF88EE8093650063E083E650
:1002A80090E096D184E68A87888180FFFDCF888197
:1002B8008E7F88838A858111F7CFE3E6F0E082811B
:1002C8008061828363E0CF0183D180E1F6D1C12CC4
:1002D800D12C0F2EF6E7AF2EF0E0BF2EF02D02C086
:1002E800C12CD12C888180FFFDCF88818E7F8883A7
:1002F8006885892D19D2F501878185FD06C083811E
:1003080085FF03C08AEF8A8715C0888580FDE8CFFE
:10031800FFEFCF1ADF0A88EEC81683E0D80614F379
:10032800C098888580FD04C00000888580FFFCCFC8
:1003380085E08A87888180FFFDCF88818E7F8883CA
:080348008A858111F7CFDFCE99
:100350001F921FB61F9211242F933F934F938F9399
:100360009F93EF93FF9380919D00823009F46EC0BC
:1003700028F4882359F0813079F1B6C0843009F42B
:100380006DC010F1853009F470C0AEC08FB1882304
:1003900031F08FB1869590919E00891310C081E055
:1003A00080939B00789B03C080939D0003C084E0F2
:1003B00080939D001FB8BD9A8EE78EB995C088EADC
:1003C0008DB980E78EB990C08FB1882329F088EA73
:1003D0008DB980E78EB988C080919C00883040F448
:1003E000E0919C00F0E0EA58FF4F80818FB915C082
:1003F00080919C00803319F482E08FB90EC0809107
:100400009C00813311F41FB808C080919C00823396
:1004100019F486E08FB901C01FB880919C0081114A
:1004200009C0E0919C00F0E0EA58FF4F8081809382
:100430009A00949880919C008F5F80939C0082E04A
:1004400080939D00BD9A80E78EB94EC083E0809373
:100450009D00BD981FB88EE78EB946C085E0809399
:100460009D00BD9880E78EB93FC080919B00882396
:1004700031F08FB180939C0010929B0027C08FB108
:100480008093990080919C00883040F5E0919C0019
:1004900081E08E0F80939C00F0E080919900EA58F3
:1004A000FF4F80831BC09781982361F49381982329
:1004B00021F098B3982B98BB05C098B3482F40956E
:1004C000942398BB880F2150310969F784E0809309
:1004D0009D001FB8BD9A8EE78EB906C024E030E0BB
:1004E00081E0E6E7F0E0DFCFFF91EF919F918F9100
:0E04F0004F913F912F911F901FBE1F901895A6
:1004FE001F921FB61F9211248F939F93EF93FF931A
:10050E001DBC1CBCE6E6F0E08081816080838781A3
:10051E008F5F87838781843610F010926D008091F3
:10052E007000882329F0E6E6F0E08285815082870C
:10053E0080917200882329F0E6E6F0E084858150F0
:10054E00848780B385FB882780F9869902C090E066
:10055E0001C092E0892BC89902C090E001C094E0DE
:10056E00892B809902C090E001C098E0892B829976
:10057E0002C090E001C090E1892B839902C090E007
:10058E0001C090E2892B80936E008091670080FFFE
:10059E0008C0C09A80916D00823310F4C19801C0DA
:1005AE00C19A8091670081FF08C0C19A80916D0049
:1005BE00823310F4C09801C0C09AFF91EF919F91C1
:0A05CE008F911F901FBE1F9018951B
:1005D8000F931F93CF93DF93C62F21E020937500CD
:1005E800FC01208120FD04C021E0226020937500D9
:1005F800C79AB79BFECFF3E0FA95F1F70000C598CC
:1006080023E02A95F1F70000C798C59A8C01DFEF1F
:1006180090917500937011F1C798F80180818FB996
:1006280080EF34D0BD988EEF31D080FF0FC090910D
:100638007500892F817090FF05C086E08093750052
:1006480080E01FC095E0909375001BC080917500F5
:1006580080FF10C08E7F809375000CC0BD9880EF1E
:1006680015D0F8018083C13011F4DFB901C01FB87B
:100678008EEF0CD0C1500F5F1F4FC111C9CF72D080
:0C06880081E0DF91CF911F910F91089548
:100694008EB98BE297E09A95F1F78DB9B79BFECFAF
:1006A40093E09A95F1F700008DB9769BF3CF87E03C
:0E06B4008A95F1F78FB19FEF9FB9BD9A089517
:1006C20080939E0010929C00E6E7F0E08FEF828319
:1006D200838386838783C79AC59ABF9ABD9888EA1F
:0806E2008DB980EF8EB9089577
:1006EA001F921FB61F9211248F938EB110929D00F4
:1006FA00BD9886B388EF8DB980EF8EB98F911F9020
:06070A001FBE1F901895B0
:100710008F938FB78F93EF93FF93E7E6F0E080819D
:1007200084608083FF91EF918F918FBF8F91189597
:10073000E82FE770F0E0EA58FF4F6083811107C0AF
:1007400080919A00681711F0949A089594980895EA
:1007500019BE83E08EBD1FBC12BC8EE390E09BBD32
:0C0760008ABD1DBC1CBC80E489BF08954C
:10076C00C598C79AB79BFECF83E08A95F1F7000036
:0C077C00C59A87E08A95F1F781E00895A6
:10078800C59AC79ABF9ABD9A8FEF8FB98AE28DB979
:0607980080EF8EB9089508
:0E079E00EC0107D005D0CE0105D0CE0104D06D
:0207AC0029CC56
:0207AE000895AC
:0207B0000895AA
:0207B2000895A8
:0207B40067DC00
:1007B600400280400600400280D60064D601ABD6D7
:0B07C600022DD605D700AA08AB0000EA
:00000001FF
